:10063B00E4F532F531F530F52FC213C210C212C2F8
:10064B0011907F98F0907F9EE04420F0C2C975CD49
:10065B00FC75CC2AD2CAD2ADD2AF120C1EE4F54532
:10066B00F5467520FF7E087FE68E4A8F4B754C084A
:10067B00754DF8754E09754F6CEE54E07002E16FD5
:10068B007533007534808E358F36C374A69FFF7417
:10069B00099ECF2402CF3400FEE48F2E8E2DF52C35
:1006AB00F52BF52AF529F528F527AF2EAE2DAD2C18
:1006BB00AC2BAB2AAA29A928A827C3120DCA502AEA
:1006CB00E534252AF582E5333529F58374CDF0E43D
:1006DB00FAF9F8E52A2401F52AEA3529F529E9354D
:1006EB0028F528E83527F52780C0E4F52AF529F504
:1006FB0028F527AF2EAE2DAD2CAC2BAB2AAA29A9F2
:10070B0028A827C3120DCA5035AE29AF2AE5362FBC
:10071B00F582E5353EF583E0FDE5342FF582E533D3
:10072B003EF583EDF0E4FAF9F8EF2401F52AEA3E01
:10073B00F529E93528F528E83527F52780B58533E0
:10074B004A85344B74E62480FF740834FFFEC3E5FE
:10075B004D9FF54DE54C9EF54CC3E54F9FF54FE591
:10076B004E9EF54ED2E843D820907F95E044C0F0E2
:10077B00907FAFE04401F0907FAEE0441DF0D2AF2C
:10078B00D215120E58538EF8301105120361C21197
:10079B0030131A1207FE5015C21312000320100754
:1007AB00907FD6E020E7F3120DDB120DFD12004611
:1007BB000546E54670020545AE45FFE4FCFD7B4072
:1007CB007A9CF9F8C3120DB450BEE4F545F546B268
:0307DB000280B5E4
:0107DE0022F8
:10036100907FE9E0700281E9147002A16024FE70BF
:1003710002A1D324FB700281E414700281DF1470A6
:100381000281D514700281DA24056002C127120F9F
:10039100F04002C133907FEBE024FE60171460410E
:1003A1002402600281CCE54A907FD4F0E54B907F36
:1003B100D5F0C133907FEAE0FF120EA9AA06A90782
:1003C1007B018B378A388939EA49600CEE907FD4FA
:1003D100F0EF907FD5F0C133907FB4E04401F0C1DC
:1003E10033907FEAE0FF120F1EAA06A9077B018B5B
:0B03F100378A388939EA49700281C35D
:1003FC00AB378B3E8A3F8940120D89F541907FEED9
:10040C00E0FFE541D39F4003E0F541E541700281F7
:10041C00B6E4F53DF53CF53BF53AE541C394405067
:10042C0004AF4180027F40E4FCFDFEAB3DAA3CA939
:10043C003BA83AC3120DCA5036E540253DF582E57E
:10044C003F353CF583E0FF7400253DF582E4347FB5
:10045C00F583EFF0E4FAF9F8E53D2401F53DEA35D2
:10046C003CF53CE9353BF53BE8353AF53A80ABE5F4
:10047C0041C394405004AF4180027F40907FB5EF60
:10048C00F0E541C394405004AF4180027F40C3E586
:10049C00419FF54174402540F540E4353FF53F90D0
:1004AC007FB4E020E202811780F5E4907FB5F090F4
:0504BC007FB47402F0A2
:1004C100C133907FB4E04401F0C133907FB4E04484
:1004D10001F0C133120FCFC133120024C133120D09
:1004E100F5C133120FE2C133120FF24002C1339052
:1004F1007FE8E0247F602314602F24027058A2104B
:10050100E433FF25E0FFA212E4334F907F00F0E4D3
:10051100A3F0907FB57402F0C133E4907F00F0A3A3
:10052100F0907FB57402F0C133907FECE0F4548019
:10053100FFC4540FFFE054072F25E024B4F582E4F3
:10054100347FF583E05401907F00F0E4A3F0907FC5
:10055100B57402F0C133907FB4E04401F0C13312AD
:100561000FF44002C133907FE8E024FE601A2402B8
:100571006002C133907FEAE0B40104C210C133903C
:100581007FB4E04401F0C133907FEAE0703B907F9B
:10059100ECE0F45480FFC4540FFFE054072F25E032
:1005A10024B4F582E4347FF583E4F0907FECE054E9
:1005B10080FF131313541FFFE054072F907FD7F0D0
:0305C100E4F53E20
:1005C400E04420F08069907FB4E04401F080601240
:1005D4000FF6505B907FE8E024FE60182402704F11
:1005E400907FEAE0B40104D2108044907FB4E044E8
:1005F40001F0803B907FEAE07020907FECE0F454BF
:1006040080FFC4540FFFE054072F25E024B4F58283
:10061400E4347FF5837401F08015907FB4E04401E5
:10062400F0800C120FF85007907FB4E04401F09072
:060634007FB4E04402F077
:01063A00229D
:0300330002002E9A
:04002E0053D8EF3282
:03002B00020800C8
:10080000C0E0C0F0C083C082C0D075D018B20590DF
:100810007F98E520F0E5497008E548154870021515
:1008200047E5484547600201D3C2AD907FB9F075F6
:100830000CFF750D9E907FB8E030E104E054FDF0B0
:10084000907FB8E030E104E04402F0907FBAE030FD
:10085000E104E054FDF0907FBAE030E104E04402AE
:10086000F0907FB8E030E104E054FDF0907FB8E014
:1008700030E104E04402F0907FBAE030E104E0545B
:10088000FDF0907FBAE030E104E04402F0907FC3D5
:10089000E4F0907FC2E030E104E054FDF0907FC2CC
:1008A000E030E104E04402F0907FC1E4F0907FC0CA
:1008B000E030E104E054FDF0907FC0E030E104E07E
:1008C0004402F05391EFD215120E58D2AD75475035
:1008D00075484675CDFC75CC2AC2CFD0D0D082D019
:0608E00083D0F0D0E032ED
:100C1E00750CFF750DDE7547EC7548EA7549017563
:100C2E000B01750A03907FDEE044E6F0907FDFE073
:100C3E0044FEF0907FDD7401F0907FADE044FEF055
:100C4E00750E01D210907F93E0547AF0E04430F0AC
:100C5E00907F96E054FEF0907FE27448F07A7E79B1
:100C6E00007E7E7F007400907FE4F07E7E747E9026
:100C7E007FE3F0907F9C74FFF0907F95E054D3F06B
:100C8E00907F9E74FFF0E4907F94F0907F9D74FFB0
:020C9E00F02242
:10004600E50D641E450C600221CA907FB8E020E1F0
:0E005600F9907FB8E030E11A907FD7740AF07D
:03006400E4F53888
:10006700E030E706E04420F08007907FD7E0444087
:10007700F0907E00E515F0A3F0E509602214600F0B
:10008700147047907F96E0547BF0751502803B9083
:100097007F96E04480F0E054FBF0751501802BE576
:1000A70015B40214751501907F96E04480F0E05472
:1000B700FBF0E054B7F08012751502907F96E0547C
:1000C7007BF0E054BFF0E04408F0E4F537E537256E
:1000D7000D908002F07E00E50D2537EE350CA3F07C
:1000E700908002E0FF74022537F582E4347EF583C1
:1000F700EFF00537E537B43ED4907FB97440F0741C
:100107003E250DF50DE4350CF50C907CC4E054EF5D
:10011700908004F0907F96E04401F0C3E50D94C011
:10012700E50C947F400221C3907FB8E020E1F9906D
:0C0137007FB8E030E11A907FD7740AF026
:03014300E4F538A8
:10014600E030E706E04420F08007907FD7E04440A7
:10015600F0907FE5F0F0F0F0F0F0F0F0F0F0F0F075
:10016600F0F0F0F0F0F0F0F0F0F0F0F0F0F0F0F089
:10017600F0F0F0F0F0F0F0F0F0F0F0F0F0F0F0F079
:10018600F0F0F0F0F0F0F0F0F0F0F0F0F0F0F0F069
:10019600F0F0F0F0907FB97440F07A7E79007E7EC0
:1001A6007F007400907FE4F07E7E747E907FE3F0A3
:1001B6007440250DF50DE4350CF50C2122907F9643
:1001C600E054FEF0E50D641F450C60026160907F0F
:1001D600B8E020E1F9907FB8E030E11A907FD7745B
:0201E6000AF01D
:0301E800E4F53803
:1001EB00E030E706E04420F08007907FD7E0444002
:1001FB00F0907E00E515F0A3F0E509602114600E88
:10020B008052907F96E0547BF07515028046907F6C
:10021B0096E04480F0E054FBF07515018036E5154F
:10022B00B4021A751501907F96E04404F0E0547FF8
:10023B00F0E50F6401701DE054B7F08017751502DF
:10024B00907F96E0547FF0E50FB40108E054BFF0C7
:10025B00E04408F0E4F537E537250D908002F07E99
:10026B0000E50D2537EE350CA3F0908002E0FF740E
:10027B00022537F582E4347EF583EFF00537E53759
:10028B00B43ED4907FB97440F0743E250DF50DE467
:10029B00350CF50C907CC4E054EF908004F0907F0B
:1002AB0096E04401F0AE0CAF0DE4FCFD7B807AFFD1
:1002BB00F9F8D3120DB450026159907FB8E020E1E8
:0E02CB00F9907FB8E030E11A907FD7740AF006
:0302D900E4F53811
:1002DC00E030E706E04420F08007907FD7E0444010
:1002EC00F0907FE5F0F0F0F0F0F0F0F0F0F0F0F0DE
:1002FC00F0F0F0F0F0F0F0F0F0F0F0F0F0F0F0F0F2
:10030C00F0F0F0F0F0F0F0F0F0F0F0F0F0F0F0F0E1
:10031C00F0F0F0F0F0F0F0F0F0F0F0F0F0F0F0F0D1
:10032C00F0F0F0F0907FB97440F07A7E79007E7E28
:10033C007F007400907FE4F07E7E747E907FE3F00B
:10034C007440250DF50DE4350CF50C41B0907F96FD
:04035C00E054FEF07B
:01036000227A
:0207FE00D32204
:020DFD00D322FF
:020FF000D3220A
:080DF500907FEAE0F510D32223
:0E0FE200907F00E510F0907FB57401F0D322EF
:06002400D215120E582255
:100FCF00D215120E58907F00E508F0907FB574018E
:030FDF00F0D3222A
:020FF200D32208
:020FF400D32206
:020FF600D32204
:020FF800D32202
:100F7300C0E0C083C082D2115391EF907FAB740164
:080F8300F0D082D083D0E032EF
:100FA300C0E0C083C0825391EF907FAB7404F0D054
:060FB30082D083D0E03281
:100FB900C0E0C083C0825391EF907FAB7402F0D040
:060FC90082D083D0E0326B
:100EEB00C0E0C083C082907FC7E4F0907FC9F090D0
:100EFB007FCBF0907FCDF0907FCFF0907FD1F090B3
:100F0B007FD3F05391EF907FAB7410F0D082D083EE
:030F1B00D0E032F1
:01002A0032A3
:100F8B00C0E0C083C082D2135391EF907FAB740843
:080F9B00F0D082D083D0E032D7
:01003200329B
:01004200328B
:010DFF0032C1
:100D1A00C0E0C083C082907E40E064067046907F47
:0B0D2A00B6E030E11A907FD7740DF0A6
:030D350075260020
:100D3800E030E706E04420F08007907FD7E04440A9
:100D4800F0907F96E0547FF0E04404F090800274C5
:100D5800ACF0A3743FF0908002E0907E80F0908029
:100D680003E0907E81F0907FB77402F0907FC7E433
:100D7800F05391EF907FAA7402F0D082D083D0E034
:010D88003238
:010FFA0032C4
:100B0B00C0E0C083C082907DC0E064097038F50CF2
:100B1B00750D1E907FB8E030E104E054FDF0907F3E
:100B2B00B8E030E104E04402F0907FBAE030E10439
:100B3B00E054FDF0907FBAE030E104E04402F09025
:100B4B007FC9E4F08037750C00750D1F907FB8E0FE
:100B5B0030E104E054FDF0907FB8E030E104E04474
:100B6B0002F0907FBAE030E104E054FDF0907FBAE0
:100B7B00E030E104E04402F0907FC9E4F05391EFE0
:0D0B8B00907FAA7404F0D082D083D0E032B5
:010FFB0032C3
:1007DF00C0E0C083C082908006E4F0907FCBF053DE
:0F07EF0091EF907FAA7408F0D082D083D0E032CF
:010FFC0032C2
:100A6900C0E0C083C082C0D0907CC6E0F51624FEE9
:100A7900601A1460231460252403702F907F96E078
:100A890054BFF0E04408F0750F00801F907F96E096
:100A990054B7F0750F008013750F01800E907F9683
:100AA900E054F7F0E04440F0750F00907CC5E0F5A4
:100AB90009907CC1E0907F97F0907CC2E090800023
:100AC900F0907CC3E0908001F0A374F0F0A374FF70
:100AD900F0907CC4E0908004F090800274F0F0A360
:100AE90074FFF0907CC7E0908005F0907FCDE4F032
:100AF9005391EF907FAA7410F0D0D0D082D083D0D8
:020B0900E032D8
:010FFD0032C1
:100B9800C0E0C0F0C083C082C0D075D000C000C023
:0B0BA80002C003C004C005C006C00767
:100BB300907C40E0B40807908007E4F08036907C96
:100BC30040E0B40617754901E07A00FB7C037DE839
:100BD300FF7E00120DA28E478F4880187549009042
:100BE3007C40E07A00FB7C037DE8FF7E00120DA2CF
:100BF3008E478F48907FCFE4F05391EF907FAA7494
:020C030020F0DF
:100C0500D007D006D005D004D003D002D000D0D074
:090C1500D082D083D0F0D0E0328F
:010FFE0032C0
:100CA000C0E0C083C082C0D075D000C007907FC0B4
:100CB000E030E107E054FD907FB8F0907FC0E03075
:100CC000E107E04402907FB8F0908000E0FF74807C
:100CD000D39F4027907FC0E030E11A907FD7740EF9
:010CE000F023
:030CE10075260075
:100CE400E030E706E04420F08007907FD7E04440FE
:100CF400F0907C007401F0907FC17401F0907FD17A
:100D0400E4F05391EF907FAA7440F0D007D0D0D094
:060D140082D083D0E03222
:010FFF0032BF
:0F09A800C0E0C083C082C0D075D000C006C007B9
:1009B700907FC2E030E104E054FDF0907FC2E03068
:1009C700E104E04402F0907B40E0B406047F388005
:1009D700027F78908001E0FEEFC39E503E907CC07E
:1009E700E0B406089080037440F08006908003749A
:0F09F70080F0907FC2E030E11A907FD7740FF04C
:030A060075260052
:100A0900E030E706E04420F08007907FD7E04440DB
:100A1900F0907B807401F08026907FC2E030E11A6B
:060A2900907FD7740FF06E
:030A2F0075260029
:100A3200E030E706E04420F08007907FD7E04440B2
:100A4200F0907B80E4F0907FC37401F0907FD3E458
:0A0A5200F05391EF907FAA7480F03A
:0D0A5C00D007D006D0D0D082D083D0E032B9
:1008E600120100010000004047050210010001024C
:1008F600000109027400010100A000090400000EB5
:10090600FF00000007050102400000070502024043
:10091600000007050302400000070504024000002E
:10092600070505024000000705060240000007050E
:100936000702400000070581034000010705820207
:1009460040000007058302400000070584024000BE
:1009560000070585024000000705860240000007E3
:10096600058702400000040309041A0341006E00D3
:10097600630068006F007200200043006800690091
:10098600700073001C0345005A002D0055005300EB
:10099600420020004400650076006900630065009F
:0209A60000004F
:070E5800907FD6E04408F092
:030E5F00E4F54275
:040E6200E054FBF06D
:030E6600E4F5426E
:100E6900E04408F0301504E04402F07FDC7E05120E
:100E79000F4A907F92E030E3077FDC7E05120F4A2C
:100E8900907FAB74FFF0907FA9F0907FAAF0539107
:080E9900EF907FD6E054F7F062
:030EA100E4F54233
:050EA400E04404F0220F
:100DDB00907FD6E030E712E04401F07F147E0012E2
:0A0DEB000F4A907FD6E054FEF0227C
:10000300907FD6E04480F043870100000000002287
:100F4A008E438F44907F92E030E30BE54425E0F531
:100F5A0044E54333F543E5441544AE437002154373
:090F6A004E600512001380EE2216
:020F1E00A90721
:100F2000AE4EAF4F8F828E83A3E064037017AD0186
:100F300019ED7001228F828E83E07C002FFDEC3E44
:090F4000FEAF0580DF7E007F009A
:010F49002285
:100EA900E4FEAC4CAD4D8D828C83A3E06402702DC1
:100EB900AB060EEBB50705AF05AE04228D828C8318
:100EC900A3A3E0F542A3E0F5436242E5426243E5AC
:100ED9004362422DFBE5423CFCAD0380C97E007FA5
:010EE9000008
:010EEA0022E5
:100013007400F58690FDA57C05A3E582458370F900
:0100230022BA
:03004300020E00AA
:100E0000020F7300020FB900020FA300020F8B0044
:100E1000020EEB0002002A00020032000200420033
:100E2000020DFF00020D1A00020FFA00020B0B0068
:100E3000020FFB000207DF00020FFC00020A69003C
:100E4000020FFD00020B9800020FFE00020CA00032
:080E5000020FFF000209A800D7
:03000000020036C5
:0C003600787FE4F6D8FD75814F02063B90
:100D8900BB010689828A83E0225002E722BBFE0268
:090D9900E32289828A83E493229B
:100DA200EF8DF0A4A8F0CF8CF0A428CE8DF0A42E65
:020DB200FE221F
:100DB400EB9FF5F0EA9E42F0E99D42F0EC6480C8B6
:060DC40064809845F02256
:100DCA00EB9FF5F0EA9E42F0E99D42F0E89C45F07F
:010DDA0022F6
:00000001FF
